:020000040001F9
:10800000002F0020F58001000F8101001181010087
:108010000000000000000000000000000000000060
:1080200000000000000000000000000013810100BB
:108030000000000000000000158101001781010010
:108040001981010019810100A58401001981010035
:1080500019810100000000006D8201000982010009
:1080600019810100198101001981010019810100A4
:108070001981010019810100198101001981010094
:1080800019810100B98301001981010019810100E2
:10809000D983010019810100E183010019810100E8
:1080A000198101001981010000000000000000009A
:1080B00000000000000000000000000000000000C0
:1080C0000348854600F08EF800480047FDB00100E7
:1080D000002F0020401E00BF00BF00BF00BF00BF38
:1080E00000BF00BF00BF00BF00BF00BF00BFF1D195
:1080F000704700000321094802680A4302600848EB
:1081000002680A4302600748804707480047FEE7C5
:10811000FEE7FEE7FEE7FEE7FEE70000240500407D
:108120005405004005840100C180010030B50B46B4
:10813000014600202022012409E00D46D5409D4241
:1081400005D31D469540491B2546954040191546C7
:10815000521E002DF1DC30BD70B5002425460028EC
:1081600001DA01244042002901DA01254942FFF7E2
:10817000DDFFAC4200D04042002C00D0494270BD2F
:1081800003460B439B0703D009E008C9121F08C030
:10819000042AFAD203E00B780370401C491C521EDB
:1081A000F9D27047D2B201E00270401C491EFBD2E6
:1081B00070470022F6E710B513460A4604461946F2
:1081C000FFF7F0FF204610BD30B5044600200346FF
:1081D00000E05B1C934203D2E05CCD5C401BF8D016
:1081E00030BD0000064C0125064E05E0E36807CCD3
:1081F0002B430C3C98471034B442F7D3FFF764FF8D
:10820000E0C5010000C6010010B512490020086059
:10821000114901204860114880684B2180B2090152
:108220004843800A4100401880B200F0A1FE014698
:108230000B4800F019FF00280BD0082809D0094985
:10824000884206D00849884203D00022114600F037
:10825000BFFC10BD00710040007000400075004080
:10826000B82300200430000001340000F8B50024D9
:10827000FF250135012627460094284603F0AEF974
:10828000002808D034484068304204D033480021E8
:108290002818344301602D1D76007F1CADB2042FD9
:1082A000EBD3FF207D3003F099F9002807D02C484C
:1082B00000210160400704432A48006900902A4FCA
:1082C000200712D00126002526420AD02748AA00FE
:1082D000111808690969C004C00E8903BA58890FCA
:1082E000904776006D1C042DEED3002C30DA00246C
:1082F0001D4E0021301940304156491C25D00778C9
:10830000BD06AD0E284601F069FC80003658002EEF
:108310001BD0BF090121A940154AA8008018006898
:10832000009A8003800F114202D0022802D00CE094
:1083300003280AD1032F05D102280AD0022128469A
:1083400003F03CF939462846B047641C042CCFD3CF
:10835000F8BD0321F3E70000006300400060004027
:108360007C61004000050050A4250020006500400D
:10837000000700508307FF22DB0E9A408907090E91
:10838000994000280BDA0007000F083883080848D6
:108390009B001818C36993430B43C361704783085C
:1083A00004489B001B1818689043084318607047E6
:1083B00000ED00E000E400E010B506490020086090
:1083C00048608860C860034940390860486003F02D
:1083D0000FFF10BD4011014010B503F09FFE10BD0E
:1083E00010B507484068002807D08047002803D010
:1083F0000022114600F0ECFB10BD02F0E7FC10BDBE
:10840000B020002010B502F02FFD002805D01F4934
:108410001D484860C8131E4988611E48018CC9B2B6
:1084200001290BD1828C120708D1028D1206120F7E
:10843000042A03D1828D1206120F0AD0012921D1FC
:10844000818C09071ED1018D0906090F0A2904D064
:1084500007E0114A01219160F5E7828D1206120FA3
:1084600005D00D290ED1808D0006000F0AD10B48D2
:108470000168012904D00A49016001680129FCD181
:10848000C021416110BD0000DFFF07C000050040B2
:10849000006C0040C00F00F00006004000EC0640F9
:1084A00075930000F0B53C4D012185B04902284686
:1084B00003F0A3F801270026384C002823D0FF2121
:1084C0002531284603F094F800281CD0FF202530E1
:1084D0002E508120324980008860607D002800D1C4
:1084E0006F600221684601702E4908680860039099
:1084F000E17C68460172E0680190E67406CC68464B
:10850000083C90471DE00421284603F076F8002837
:1085100017D0FF210931284603F06AF8002810D04F
:1085200003F0A6FBE07C217D88420AD1607D002813
:1085300000D16F6081201A4980008860207D03F09F
:10854000ADFBFF211D31284603F052F800280DD065
:10855000A07C218A884202D903F08CFE06E0FF212C
:108560001D316E50002801D003F09AFEFF214531E5
:10857000284603F03DF800280CD0FF2045302E504F
:10858000607D002800D02F60E07C002802D0207D94
:1085900003F084FB05B0F0BD00200040EC25002076
:1085A000002300408024004030B47446641E2578C7
:1085B000641CAB4200D21D46635D5B00E31830BC17
:1085C000184702E008C8121F08C1002AFAD17047F4
:1085D0007047002001E001C1121F002AFBD1704743
:1085E0001CB51149486889680191009006206946C8
:1085F0004870684602F092FE0C49012048600C4920
:10860000802008600B48016803220902090A9207CA
:1086100011430160084800224168FF231B0299436F
:10862000416002601CBD000028C5010000730040CD
:1086300000E100E004E400E000750040F7B584B01C
:108640000025168807461580406B1446002813D075
:1086500003780598032E51D302210170218811223D
:10866000491C89B2218042542188491C89B2218049
:1086700043542088401C2080386B00281DD00546BC
:108680002088059902461232B24237D811220A5484
:1086900020881022401C80B220800A542088401C70
:1086A00020800F202A5C2388401ECA54228840B2B2
:1086B000521C22800028F5DA00253846203002902E
:1086C000807B002806D033462246059902F018FC2C
:1086D000050014D10298407B002806D0324621467E
:1086E000059800F0C1FD050009D1B878002823D015
:1086F000059886462088001DB04202D90C2007B09C
:10870000F0BD684679DF0028F9D121880320724640
:10871000505420881921401C80B220801154208898
:108720007146401C80B2208041186846008803F0E2
:108730000DFE218840182080F878002817D0218865
:1087400003230A46FB56C91C0598B142D6D802211C
:10875000815421880122491C89B2218042542188F8
:10876000491C89B2218043542088401C20807868AD
:10877000002817D021880023C3560A46C91C059833
:10878000B142BBD80221815421880A22491C89B2F6
:10879000218042542188491C89B221804354208879
:1087A000401C2080388900280AD000943846019661
:1087B000062202210830059B03F047FE05009ED1EA
:1087C000388A00280AD000943846019607220321EF
:1087D0001030059B03F039FE050090D1388B00283E
:1087E0000AD0009438460196152214211830059BB2
:1087F00003F02BFE050082D1386A002806D03346EC
:108800002246059901F04AFB0500D8D1786A002874
:1088100006D033462246059902F0F6FC0500CED17B
:108820000298007B002807D0334622463846059937
:1088300003F044FA0500C2D13878002807D0334647
:1088400022463846059902F013FD0500B7D12846A7
:1088500055E710B501220221002000F0EBFF0028AF
:1088600001D0072812D107220221012000F0E2FFE7
:10887000002801D0072809D100210A22084600F06B
:10888000D9FF002801D0072800D1002010BD00002A
:1088900010B592B004460721C9436846114A0170D9
:1088A00007CA0FAB07C3104900208870382101A800
:1088B000FFF77FFC02216846017101218171C471BB
:1088C0000321029081820FA80690002101A800F0E8
:1088D00097FB002803D00022114600F079F912B06E
:1088E00010BD000034C5010000200020F0B59BB091
:1088F0000AA802F065FF002803D00022114600F00C
:1089000067F90A980127364C002802D067701BB01F
:10891000F0BD18216846FFF74CFC0020694608703E
:10892000019008720390A07803252826002806D01D
:10893000012805D002282DD0032848D134E0A770A3
:108940000820087708A908710BA8069013A80890BA
:10895000234806A9001D01F0EFFF002803D00022E4
:10896000114600F035F96846007F002803D108A8B9
:108970000079002807D002256846057206A80390F2
:108980000420FFF785FFA57069460E821E204882ED
:10899000032014E00520FFF77BFF69460E821E20AE
:1089A0004882A57002200AE00520FFF771FF192117
:1089B000C90168460182B42141820420A07000F000
:1089C0005DFF002803D00022114600F001F968463F
:1089D00073DF00289BD00022114600F0F9F896E7DB
:1089E0000020002070B590B005461C216846FFF7B6
:1089F000E0FB6946087804210843694608700024B2
:108A00000194039404940594012608A906948E7099
:108A1000144869460884601C00070794000F0C770F
:108A200020304877887FF9210840F721801C0840D2
:108A3000EF210840B0436946887714210AA8FFF760
:108A4000B8FB08A90C7107A80A910B9069460E861D
:108A50004C868E8609A80E90A888AB1D0AAAA2DFB4
:108A600010B070BD062A0000F0B58FB00D46064666
:108A70001C216846FFF79DFB684601780A200143E8
:108A8000684601700024019403940494059401271E
:108A900008A8069487701649684601840794697A85
:108AA0000177A97A4177807FF9210840F721801C5E
:108AB0000840EF21084041084900684681771421A9
:108AC0000AA8FFF776FB297A08A801710A9007A87F
:108AD0000B90684607864486878609A80E90334621
:108AE00030890A330AAA6946A2DF0FB0F0BD000040
:108AF000062A000010B5002805D001280AD0022857
:108B000007D1102007E0112005E00022114600F0F7
:108B10005FF810BD0D2000F0B1FE0028F5D110BDAA
:108B2000044842680121C9050B46934383600A400B
:108B3000C26070470005005070B50024064D06E085
:108B40006968E000085C012102F048FC641C287898
:108B50008442F5D3002070BD7C200020F8B5154676
:108B60000C460646052A01D20720F8BD02F00CFD8E
:108B7000002803D102F0DEFC0028F6D110490020C5
:108B80004E600C70C8608D6008610E4D0DE0E00015
:108B900069688019009181786A46517000780A4AA4
:108BA000694602F06BFC0028DFD12046641EE4B267
:108BB0000028ECD1054A0021024800F043F8F8BD36
:108BC0007C200020D8C5010005AD010069A001008E
:108BD000BFF34F8F04490348C860BFF34F8F00BFF6
:108BE000FDE700000400FA0500ED00E0014B1B6802
:108BF000184700008025002038B50C46A2680C23D9
:108C00005A43064B09789D58054A126A009202465B
:108C1000204608302369A84738BD0000D026002030
:108C20005820002010B5064914230A785A435118D9
:108C3000091DFFF7E1FF042003F008F910BD000053
:108C400004260020094B9B68002B07D0002A07D080
:108C5000002805D00068037C002B03D00820704753
:108C60000720704741744261002070479020002027
:108C7000FFB59007002581B014460E46002832D17A
:108C80001B4F002C31D002F0D1FF049878610320F3
:108C9000387033461821224600204B43BC601834FC
:108CA000C10089180D704D708E704C601C19401CED
:108CB0000328F5DBFD607D7001240E48BD7024059E
:108CC000046003211420FFF755FB0B4804600B4C94
:108CD0000198A06003211120FFF74CFB6068386108
:108CE000002005B0F0BD0720FBE7BD60FBE70000FA
:108CF0009020002080E200E000E100E0001501404B
:108D0000FEB50D461B4917468968044600292AD03E
:108D1000002C28D0052D01D20720FEBD6069002857
:108D200021D0607C012820D0002603F051FBC00038
:108D30001049019089684018694603F073FB0028C8
:108D400015D0012101700C49446049680830E2C027
:108D5000084901988968411868460078487003F00E
:108D60001FFA0020FEBD0820FEBD2E46DDE70420D0
:108D7000FEBD00009020002000150140F8B5134D05
:108D80000446A96800291CD0002C1AD0606900286C
:108D900017D00026267403F01BFBC700A86869469D
:108DA000381803F03FFB00280DD002210170446009
:108DB000A868391868460078487003F0F1F9304621
:108DC000F8BD0820F8BD0420F8BD00009020002068
:108DD00000B585B014216846FFF7EBF91448009000
:108DE00001216846017100200290642168460173E8
:108DF0000120014668461031417301200146684652
:108E000010318173002001466846C173012001467C
:108E10006846103101746946064800F05FF9002881
:108E200003D000221146FFF7D3FE05B000BD0000BD
:108E30000DB60100B8230020F0B50546007D0024E2
:108E400093B00E4600280DD001200146684610312F
:108E500003940173717B4173817BF9200140684663
:108E6000891C81731C2104A8FFF7A3F96946087CBB
:108E700002210843694608742A7DEF21002A02D0A6
:108E80001022104300E008406A46107405940794CD
:108E90000894287D002800D003A8099001270A948F
:108EA00010469771304A82800094B27B0270F27B48
:108EB00042708078F9221040F722801C1040EF2188
:108EC00008404108490068468170317B01721421D5
:108ED0000BA8FFF76EF901A80B9068460C908786E7
:108EE000C486078702A80F90A888AB1D0BAA04A907
:108EF000A2DF002835D1B068002830D068468771DD
:108F00001A4981800094317C017000200146684636
:108F100041708078F9210840F721801C0840EF213A
:108F20000840410849006846817011A8B16800F006
:108F3000EFFA064614210BA8FFF73BF901A80B90A6
:108F400068460C908686C486068711A80F902A462C
:108F5000E8880E320BA9A3DF002802D100E0EC81E3
:108F6000002013B0F0BD0000192A000008290000FD
:108F70001C4A10B5904201D3642010BD19496439D0
:108F8000884207D9101A3A2148436421FFF7E4F8D0
:108F9000642109E0144A904209D9081A182148436B
:108FA000A021FFF7D9F82A21081AC0B210BD0F4935
:108FB000884208D9101A0C214843FF212D31FFF7B0
:108FC000CBF81221F0E70A4A904208D9081A062184
:108FD0004843FF215531FFF7BFF80621E4E70020A1
:108FE00010BD0000B80B0000B40A000088090000A2
:108FF00034080000014901200860704700700040FB
:10900000F0B50C4693B01F216A4611800726002751
:109010009180002809D0C17849070DD502A9FFF732
:109020000DFB002809D102AD01E000251780002CBE
:109030000ED0E078002802D0304613B0F0BD01AA6F
:109040000AA92046FFF7FAFA0028F6D10AAA02E098
:1090500068460022878068468088C3B268460088D8
:10906000C1B2284672DFE8E773B586B004002FD09E
:109070006A46217C127F0020914227D000250126DC
:10908000684600950680458007A80190E188608ABF
:109090006A46A4DF002819D16846007F2074608AE0
:1090A0000D49884216D0207D002813D002950395E3
:1090B00004950595E1886846018186724188818121
:1090C000049001980590608A02A9A6DF08B070BDDF
:1090D0000E20FBE70820F9E7FFFF000038B50D463A
:1090E00004001AD0002D18D0286820600020C0434A
:1090F000608228792075FF202074012168468170E4
:1091000007490180221D69460120A0DF002803D104
:1091100029462046FFF790FE38BD0E2038BD0000DE
:109120000F18000038B5002824D0002922D00A8862
:10913000102A1AD0112A1AD0502A1BD1027D002AD7
:1091400018D0CA884389891D9A4213D10A8B022AF2
:1091500010D10268002A0DD0CB7E8C7E19022143EB
:10916000C907C90F07D0002106E0898801E0002166
:10917000C943418238BD01216B4619706946904749
:1091800038BD000070B5054601461C220E48FEF7AA
:10919000F7FF0E4C002626702968002906D0082209
:1091A000201DFEF7EDFF201D7ADF02E00748001DBD
:1091B0007BDF002807D1401E60806670044A0021D2
:1091C0000448FFF73FFD70BD6824002028200020E0
:1091D0006DC301007CC50100F8B5214C0288002751
:1091E0001E4DE689102A15D01E49112A21D0122AB7
:1091F0002DD0502A1CD1C288801DB24218D1028BBA
:10920000022A15D1C27E837E10021843C007C00F08
:109210000CD112E08188698001461048082216317D
:109220000C30FEF7ADFF6F70002E01D100F080FE14
:10923000F8BD0020C04368806F700868FFF79EFD8E
:109240000028F5D0A1690029F2D08847F8BD811D1A
:10925000024808220C30FEF793FFE7E728200020A1
:10926000682400207CC501007CB5054608880C46B2
:109270000930904201D90C207CBD684671DF00287E
:10928000FAD121880820685420881B21401C80B214
:1092900020802954208800A9401C80B220804019D9
:1092A00006220131FEF76CFF20886946801D80B2DE
:1092B00020800978002900D0012129542088401CF1
:1092C000208000207CBD000010B5044600F0FCFFAB
:1092D0002046FFF781FF21460E4800F0A9F80D480F
:1092E0002146103000F0EAF80A4821462430FFF702
:1092F00019FF084821463C3000F026F80548214671
:109300000C3800F055F9204600F0A6F9204602F08E
:1093100097F910BD942300200A68002A0ED002603D
:10932000496841600021C94341810021018104480D
:109330000121817003490180002070470720704798
:109340003C200020062A000038B504460888012287
:10935000102809D0112828D0302810D0322802D166
:10936000204602F0AFF938BD888860816846827077
:109370001549018060896A46012190DF09E0CB88A8
:109380002046002B0CD18B89002B09D0608912312B
:1093900092DF0028E7D061680029E4D0884738BD13
:1093A00069460A700268904738BD0020C04360815A
:1093B00020890028F8D002206946087022682046DB
:1093C00090470020208138BD0218000033B5018984
:1093D000002283B000290FD0408900926D4601928F
:1093E0000123698002212970AA8004ACEB806946C0
:1093F000029497DF05B030BD0520FBE738B5044681
:10940000086800280FD02060012168468170074954
:109410000180221D69460120A0DF002802D12046DC
:10942000FFF7E0FA38BD072038BD00000218000041
:1094300008B50A88102A12D0502A0FD1CA88C388CA
:10944000891D9A420AD10A8B012A07D100236A4654
:109450001370897E517002686946904708BD8988FB
:10946000C18108BD1CB5002201246B4600921C80FE
:109470005A8001914189408A6A46A5DF1CBD0000DF
:1094800038B5044608680D46002813D02060686887
:1094900060600121684681700749018022460832D8
:1094A00069460120A0DF002803D129462046FFF7A6
:1094B000DBFA38BD072038BD0318000038B50B882B
:1094C0000022102B0BD0112B0CD0172B1AD189791D
:1094D000002917D169460A704A70026816E0898827
:1094E0004182F7E70446887908280BD16846027064
:1094F000411C2046FFF7B6FF002804D06168002910
:1095000000D0884738BD226869462046904738BD5C
:109510000A78027049784170022070471CB5002318
:1095200048221549082002F0C5FC002803D000227B
:109530001146FFF74DFB002000906946019008702E
:10954000684660DF002803D000221146FFF740FB89
:109550000A4802F0A5FC002803D000221146FFF7BC
:1095600037FB074802F0BEFC002803D0002211465A
:10957000FFF72EFB1CBD000040230020C992010014
:10958000D9C0010038B504460D46012168468170F6
:1095900006490180224669460120A0DF002803D148
:1095A0002946204602F08CFE38BD00000418000059
:1095B0000A88102A01D18988418170471CB5044668
:1095C00081786A460C4802F00FF9002812D16078C1
:1095D0001C21484309491C2340181A46694602F0D9
:1095E000BDF9064806493830807A80000A5821467D
:1095F000684690471CBD00005020002048250020F0
:1096000090C501007CB5134E00250C463060002942
:1096100018D06946002000F0B5F8002819D101A93A
:10962000012000F0AFF8002813D16846017900202E
:10963000002901D0022004E069460978002900D001
:109640000B2020707068002802D1FFF702F9054650
:1096500028467CBD2020002010B51C4C0188606885
:1096600010290DD011290AD1401E606007D1FFF7E3
:10967000F0F8002803D02168002900D0884710BDE9
:1096800000281ED100210122084600F0D3F800284E
:1096900001D0072811D107220221012000F0CAF8C9
:1096A000002801D0072808D104220221002000F060
:1096B000C1F8002805D0072803D02168002900D070
:1096C00088476068401C606010BD000020200020BA
:1096D00010B5032000F02CFA002801D0062800D194
:1096E000002010BDF8B507460024234802E0641CA2
:1096F000042C1AD2A2008258BA42F8D1042C14D2F7
:109700001D481E4E0C38002929D001290ED00229EF
:109710000BD16000201880194578002D05D018481D
:109720000169002901D028468847F8BD6100611809
:10973000755C8E19717800290CD011490A2249688C
:10974000806851430E4A521CFFF7DAFA002801D113
:109750000B4847700A48B17814300155DDE780683E
:10976000FFF70CFB06486100611814308919005D91
:109770008D78A842D1D0F8BD4CC501001C24002032
:109780000820002004280CD2074A1269074B8000E9
:109790001B5C01209840904300D0012008700020FD
:1097A00070470020FAE70000000500504CC501009A
:1097B00010B51C4C04280CD00A2807D00D2810D056
:1097C0000E2805D1112000F059F807E002F024FB23
:1097D00010BD1321E08876DF0828F9D0002814D1C5
:1097E00010BD20780028FBD0E078002812D000219E
:1097F0000D48FFF7EBFD00280ED00C498842EFD052
:109800000B498842ECD00528EAD000221146FFF728
:10981000DFF910BD0221EBE7E07801214840E0705C
:1098200010BD000000200020D023002004300000E4
:109830000134000070B50023042811D2440004193B
:109840000D4D012A02D101290DD0002246008019B8
:10985000094E801900290CD0012906D0022906D012
:109860000723184670BD0D30C2B22A55F9E7427081
:10987000F7E78270F5E700001C24002010B5054AC8
:109880000146127A0020D20702D0084600F054F8B0
:1098900010BD00000820002070B50E462049054686
:1098A0004E608D6000200A61A9071ED500240122A8
:1098B00011462046FFF7BEFF641C042C02D200288C
:1098C000F5D012E0002810D1720804211548FFF7E6
:1098D00045F9002809D1FFF72FF9002805D11148D3
:1098E000114A00211438FFF7ADF9E90706D00F221D
:1098F0000E4952058A600023CB608A6100280DD191
:1099000008480B4A00211C38FFF79CF9002805D1B4
:109910000448084A01211838FFF794F970BD000087
:10992000082000205CC501006D9B0100000500506F
:1099300055AF0100218B0100FEB57A4D0722EB687F
:1099400092059A4302936B6800939C0006461B198C
:1099500000200121019349050746734C3300FEF7AF
:1099600023FE180D1515374755677C887F8891DED3
:109970009E9E9E9E9EC8CED1D8DEDE140F21029AF6
:1099800049059143A160E7602F70FEBDA260E760CA
:1099900060680F2252055040800209D5A160E7603F
:1099A000022E02D1E120C0000AE07D20400107E044
:1099B000E160A760022E01D1C82001E0FF209130B4
:1099C0002E706421FEF7B2FB0099414300223FE074
:1099D000A260E76060680F2252055040800204D503
:1099E000A160E76019204001EAE7E160A760E3E7D2
:1099F000A260E76060680F2252055040800202D5E5
:109A0000A160E760D1E7E160A760D7E7A260E76007
:109A100060680F2252055040800202D5A160E760C5
:109A200001E0E160A7602E700098410000220FE085
:109A3000A260E76060680F2252055040800202D5A4
:109A4000A160E76001E0E160A7602E70009900224C
:109A500036480068FFF754F9FEBDA260E7601BE0DE
:109A600061680120800502468A43A2600140E160EE
:109A700010E06068012189050A468243A26008401F
:109A8000E060E3E76068012189050A468243A2603D
:109A90000840E0600199C9E7E160A7602DE0234834
:109AA0004068FFF76BF911218A1B01D0002807D00D
:109AB0000F22E96852051140A160E760EF60FEBD2A
:109AC0000121C905E960012A0CD91046C821484383
:109AD0006421FEF72BFB696800224143134840686C
:109AE000FFF70EF90F22E96852051140E160A76007
:109AF000FEBD0F214905A160E7602E70FEBD072263
:109B00009205AAE70D214905A160E76001218905B9
:109B1000C2E70321C905A160E7608910BCE70F21F6
:109B20004905B9E7082000200005005040C50100A4
:109B3000F0B500210B4C0C4D03273F048A00A258BE
:109B400092005619326801238B40034000D0032352
:109B5000BA431B0413433360491C0429EED300208D
:109B6000F0BD00004CC501000007005010B50078A2
:109B70000221FFF7B7FD10BD0022D2438300044944
:109B80000428CA5002D3081820300277704700001A
:109B9000A4250020F0B50025ED43002A02D00023C3
:109BA000042601E0042308260B4C04E09F00E7593B
:109BB0007F1C04D05B1CB342F8D32846F0BD2618A6
:109BC0005DB2203635709E00A151002AF5D1E11812
:109BD00020310877F1E70000A42500200249091888
:109BE0002020085670470000A4250020F8B53E4804
:109BF0001422017851430C18E0680C2148433A497B
:109C00002769CC314018058941890091241D466897
:109C100001F078FE01463846FEF788FA002932D076
:109C200000200099A2884D436188AE198918CD198A
:109C300000222E4900280A6109D001F063FE6188E4
:109C4000884222D0B54202D1A08800281DD0A06849
:109C500002281AD001F056FEA188CA190146104602
:109C6000FEF764FA214C8808E06001F04BFE0146E3
:109C70002846FEF75BFA002911D00020B5422FD00C
:109C800000280ED02CE00120CBE701F03BFE01467E
:109C90003846FEF74BFA15494861032021E00120C0
:109CA000ECE7ADB2B7B201F02DFE01463846FEF743
:109CB0003DFA064601F026FE01462846FEF736FA32
:109CC000864201D1781B09E001F01CFE064601F036
:109CD00019FE01462846FEF729FA701A800820610D
:109CE000022002F0B3F8F8BD04260020582000201E
:109CF00010B5074814220178514308180079042848
:109D000002D000F059F810BD012002F09FF810BDFC
:109D10000426002010B50B4814220178514308187E
:109D2000094AC18811620079012806D0032801D0B0
:109D3000042801D1FFF75AFF10BD012002F086F878
:109D400010BD00000426002058200020142250439B
:109D5000054A002180180171C18001220161C260A1
:109D6000416101817047000004260020F8B5104CC5
:109D7000069E65780A2D19D027787D190A2D00D303
:109D80000A3D14277D432D1928716A6103C9296191
:109D9000E860EB802E816078401C60700548007898
:109DA000002801D1FFF7B6FF0020F8BD0420F8BD60
:109DB000042600205820002010B50D4C14212078D6
:109DC000484301190020091DFEF716FF2078FFF710
:109DD000BDFF6078401E60702078401CC0B22070CB
:109DE0000A2801D100202070002002F02FF810BDB9
:109DF00004260020F8B52348C16800293ED00E682B
:109E000021494C680769C078E11B0D022D0AED1C41
:109E1000002814D101201D4A000450601B4A403A1A
:109E200050601B49400008601A4908601A49012027
:109E300008602F20FEF74EF912490120C870B54284
:109E400000D23546E81900020F4B000A4033186073
:109E50000D4A5168001B091B0902090A0002000A89
:109E6000C91C814209D9506818602F20FEF732F9C9
:109E700001200749400480390860F8BD01F0D6FE92
:109E8000F8BD000090200020001501404013014063
:109E900080E200E000E100E000100140F8B5064675
:109EA000108814468446801D0D46984201D90C2026
:109EB000F8BD32880720062AFAD31927FF01184B6C
:109EC000BA4201D99A42F3D171880629F0D3B94236
:109ED00001D99942ECD19A4203D0994201D08A42E9
:109EE000E6D805216046295420881221401C80B202
:109EF000208029542088401C80B22080411930885D
:109F000002F024FA2188401880B22080411970881C
:109F100002F01CFA2188401820800020F8BD0000C3
:109F2000FFFF000010B500221146FEF751FE10BDE4
:109F3000F8B5164800F08AFF144D00260C3D144C6D
:109F4000002807D0616900291CD001206A461070E2
:109F5000684616E02878002805D06169002911D0EC
:109F6000684606700DE0687800280DD0A1680948A1
:109F700000220068FEF7C4FE002803D0A169002972
:109F800000D088472E70F8BD6168F0E734200020CB
:109F9000682400207CC5010070B5094B04469E7AF8
:109FA000082000250E4207D00648844202D01889B6
:109FB000A04202D10020156070BD052070BD0000D8
:109FC00074250020FFFF00000C214843064910B50E
:109FD000012240188272911E0181FF21C172072166
:109FE000FEF7E7F810BD00007425002010B5134CF3
:109FF000207900071FD46069401C6061E068002878
:10A0000001D0042004E000F053FF002803D0022018
:10A0100002F058F810BD2069002809D06068C10717
:10A0200001D00320F4E70121084360600020EFE73E
:10A03000FFF75EFE10BD02F039F810BD5820002079
:10A0400010B5084841680A0708D48A0702D50122DA
:10A0500011434160022002F035F810BD02F026F8ED
:10A0600010BD000058200020F8B500260124154D31
:10A0700023E06968F0004718387821462A69814052
:10A08000114218D08A432A6101F04AFA3A782146EF
:10A09000EB68914019400346934099420BD179787F
:10A0A000012901D0012100E000217B684140002B03
:10A0B00001D010469847761CF6B228788642D8D34D
:10A0C000F8BD00007C200020FEB50E4604468178D5
:10A0D0006A46234801F088FB002827D160780C21CC
:10A0E000204F4843C019807A400620D4022E1ED04B
:10A0F000012E1ED01C4DA0781C2148431949002375
:10A10000F03941181C226846A847002813D0022EB7
:10A110000CD020780C21484312490C314018807A29
:10A12000124980000A58214668469047FEBD104DEE
:10A13000E1E7104DDFE7022EF8D060780C214843AC
:10A14000C019817ABF221140817260781C21484376
:10A1500004492C3941181C231A466846A847D8E7F9
:10A16000502000207425002031C0010080C501006E
:10A170009DBB0100C1BA010070B50546114A1248E5
:10A1800000241C2363431B189B7EFF2B04D0641CFC
:10A19000072CF6D3104670BD0A78022A09D01C227B
:10A1A00062431018FD22827607221030FDF7E8FF87
:10A1B00004E01C2161430818FE2181762C700022E6
:10A1C000E8E700004380000084240020F7B505255F
:10A1D0000F4F06460024002E0AD01C206043C019F1
:10A1E000072231461030FDF7EFFF002807D00AE0C4
:10A1F0001C206043C019018B0298814203D1019851
:10A200000025046002E0641C072CE4D32846FEBD50
:10A21000842400207CB5054681B26A46074801F0D7
:10A22000E3FA040008D14C21684601F007FB040062
:10A2300002D1284601F090FA20467CBD5020002033
:10A2400010B5100003D000221146FEF7C1FC00201B
:10A2500010BD00001FB56946087301F059FB0028C6
:10A2600003D000221146FEF7B3FC03A800F018FA51
:10A27000002803D000221146FEF7AAFC01A8052100
:10A280000130FDF796FF6946487901221043E1212C
:10A290000840DF210C30084069464871072088716A
:10A2A0001020C871064800900A71064800F00AFBA9
:10A2B000002803D000221146FEF78AFC1FBD0000D3
:10A2C00041A2010004200020F0B5054693B0002013
:10A2D0000090FF24E7480E94007800284CD0E64F09
:10A2E0003868002848D001A800F0CCF9002803D035
:10A2F00000221146FEF76CFC281D05902A216846B5
:10A300000183FF210026817106710396DA4C2888AB
:10A310000C3C10280ED0A88803AA0221FFF73CFEAF
:10A32000002807D103980C2141430919CA7A6946CC
:10A330008A71487129881320162317297ED00FDCD3
:10A3400010291BD0112953D0132978D0142913D1E7
:10A3500003980C2148430019C07AFF2870D09FE071
:10A36000C64A18296DD01C2963D0522904D1B87A65
:10A370008000115801A8884713B0F0BDC04F03AA50
:10A3800001213846FFF708FE0028F5D103990C207B
:10A39000484302220019827211236A4613745171D4
:10A3A000A98801810722A91DFDF7EAFE287DC107C2
:10A3B00007D04108AF480830405CFF2808D00E9015
:10A3C00006E03A460EA9A81DFFF700FF002832D18B
:10A3D00003990C22514309190E98C8728A7A0823EE
:10A3E0001A438A726946887101A8FFF7E7F822E0EC
:10A3F00003980C2148430119887AFD221040887285
:10A40000010706D5C0090DD0002101A8FFF75CFEA9
:10A4100008E068468079FF2804D001F09DF9FF200C
:10A420006946887103980C225043102100198172EB
:10A43000122069460874324604A903E08BE041E02B
:10A4400011E0E5E001A8FEF7D1FB6846007C122888
:10A4500092D103980C2141430919897A01298BD0A3
:10A46000FFF7B2FD88E7EA890EA90020FFF7AEFEEC
:10A4700000280ED103980C22504300190E99C17286
:10A48000827A08231A4382726846817101A8FFF715
:10A4900095F803980C2148430019C07AFF2806D08C
:10A4A00003981C2148437449383940180090039898
:10A4B0001C2148437049FC394218A88800230099A0
:10A4C00082DF59E76946087403980C2184464843A3
:10A4D0000119887A042210438872CA7AFF2A2AD086
:10A4E0006A46137462461301634A1C3A9B180022A1
:10A4F0009A60DA6040221043887203990C2200208F
:10A500004A430A901219D27A1C235A435A4B0C9090
:10A51000FC3BD2180B921C2251431A46C4328918B4
:10A520000791089009903A1DA88807AB00217FDFAA
:10A53000002897D17FE70EA8FFF71EFE002801D064
:10A540000646DAE769460E98887103990C22514352
:10A550000919C872D1E7787A0C2140084000787256
:10A5600003986F4602464843011984468B7AFB20C4
:10A5700003408B7214203874A879002804D0C87A5C
:10A58000FFF748FEAE7956E7E8794007D2D5B879AB
:10A59000FF28CFD008273B438B72EB7A9B0709D566
:10A5A0001C2503466B43344DFC3D5B199D7E6D08B5
:10A5B0006D009D76CB7AFF2BBCD06346E35C022B0B
:10A5C00011D01C222C4D5043FC3D40190722103065
:10A5D000FDF7D6FD684680791C2148434019817EED
:10A5E000FD2211400EE01C214A43234938395118FD
:10A5F0004A8A1C2148432049FC3940180283817E45
:10A60000490849008176012101A8FFF75DFD12E7A5
:10A61000A879010901291BD10007000F012817D1D2
:10A6200003990C2048430519A87A060710D50A019A
:10A6300011491C39521800219160D16069460B7490
:10A6400060210843A872787A0221084378720FE0EB
:10A6500003980C2148430019817A802319438172A1
:10A66000152069460874B87A8000115801A88847F7
:10A670000026E0E64020002080250020A0C5010043
:10A68000FFFF0000002806D0FF210170417081709B
:10A69000C170002070470148704700000E80000024
:10A6A000F0B585B0050037D02A4800240460447214
:10A6B00084722046FFF788FC264800267C38046612
:10A6C00044668466FF27C466304601F045F8224898
:10A6D0008755761C072EF7D34C21684681800721C9
:10A6E000C1801E481C4900900831684601F08AF973
:10A6F00000280FD1184E0120083E3070287800281D
:10A700000CD069468888C988484381B230461030E9
:10A7100001F094F805B0F0BD1148FBE70D4F00259E
:10A72000FC3F0D48A9B202AA083001F05DF80028EC
:10A7300009D11C206843C01900231C2202A901F082
:10A740000DF9002801D03470E4E76D1C072DE8D323
:10A75000E0E70000802500204820002065A70100D8
:10A760000E800000FFB555488FB00068189F1E4648
:10A77000002852D04C2F50D86846FFF783FF00289E
:10A7800003D000221146FEF723FA00246846047025
:10A790000471254605970696A9B20DAA484801F00E
:10A7A00023F8002806D108220DA90F98FDF70CFD0B
:10A7B00000281AD06D1C072DEED3684680780790CC
:10A7C000FF282AD010982025032811D03B481C21AF
:10A7D000FC38301AFDF7AAFC012707282DD204A85F
:10A7E0000290119800281AD021E068468570E4E7AD
:10A7F0004C2F03D040206946087101E0684605717E
:10A8000069460879032108436946087104A8029043
:10A8100001A96846119AFEF7E9F913B0F0BD07994E
:10A82000384688402649103949680842F5D00798CB
:10A8300001F092FD6846057136E020481C21383849
:10A84000301AFDF773FC002808D01C481C38311A58
:10A8500009091BD0402069460871DEE704A8029070
:10A8600068460571447015480A940C300B904438C2
:10A870000790684680781C2148431049FC394018ED
:10A88000089007A80690182005900DE03022694630
:10A890000A714C70CF7009490C39897A890703D441
:10A8A000046044608460C460109869460228087996
:10A8B00001D00221A7E73843A7E700008025002048
:10A8C0005020002070B5064618480D460078002834
:10A8D0000ED01749002E0ED0002D0CD0286800286D
:10A8E00009D0144C2168002907D011480A3870BDDE
:10A8F0000F48801F70BD084670BD20600522691D8D
:10A90000201DFDF73DFC2879A072207A0221400825
:10A9100040000843FB2210402072E07901231843D5
:10A9200008431040E0710020307070BD40200020CE
:10A930000E80000080250020F0B5294A294B1278AE
:10A94000002A2CD09A1D00280BD0002909D00C68B1
:10A95000002C06D08C68002C03D0007800281ED173
:10A9600001E01046F0BD20480068002817D0002301
:10A970001D4C1A4618460C3CE57A854202D1A57A50
:10A98000AD0726D40D7B954212D91C2506466E4391
:10A99000154DFC3D7519AE7EF60702D008E018464D
:10A9A000F0BD8E689700F5510D4D0835A854521C26
:10A9B0000D799D420DD91C2506466E430A4DFC3D7E
:10A9C0007519AE7EB60704D49F0010350E685B1C67
:10A9D000F551401C0728CFD30B710A730020F0BD3E
:10A9E00040200020088000008025002010B50E497E
:10A9F00000234A788C78A24212D0521CD2B24A70FC
:10AA0000022A00D14B704A78074B920018339A58AB
:10AA10000260086910180002000A0861012010BDD8
:10AA20000360002010BD00009020002010B5002819
:10AA300003D0112802D0FEF7F5F810BD0248082215
:10AA400041681143416010BD5820002010B51C4CD6
:10AA5000217820464068012906D0022929D00329FF
:10AA600012D1000717D513E0000711D4154814229E
:10AA7000017851430818C188A28B891A0904090C6E
:10AA8000C18002D001F0D6FA10BDFFF795F910BDD4
:10AA900000F0AEFB10BD6069401C606100F008FA78
:10AAA000002803D0207801F0D1F910BDFFF720F97C
:10AAB00010BD6078044980000858804710BD000030
:10AAC0005820002004260020C4C5010010B528DF4E
:10AAD000FFF7ACFF10BD10B529DFFFF7A7FF10BDD2
:10AAE0000EB51120694608720B2217A102A87CDF5F
:10AAF000002803D000221146FEF76AF809208001E1
:10AB000078DF002803D000221146FEF761F800210B
:10AB1000FF20913000916A460191108043005380DC
:10AB20009180D08068467ADF002803D00022114649
:10AB3000FEF74EF80720C04377DF002803D000223D
:10AB40001146FEF745F80EBD4E6F726469635F50A3
:10AB5000726F780000207047002070470020704717
:10AB6000F8B5417805460A0126480C235943964614
:10AB70001018244B002442681033C9182746264673
:10AB80009446002A0BD08B7ADA0908D05A0606D4EC
:10AB9000044660461B4A87B2704616580834088936
:10ABA00033463A462146A9DF0B281CD0002800D0A6
:10ABB0001548012E16D168780C2148431149134AD3
:10ABC0001031401800890C21A7DF00280AD0104955
:10ABD000884214D0082812D0891C88420FD011282E
:10ABE0000DD00020F8BD68780C21484305490123A9
:10ABF0001031401800893A462146A9DFDBE70248B8
:10AC0000F8BD00006425002041800000FFFF000027
:10AC10000230000070B50C4601466078084D000116
:10AC200040193823102200F099FE002806D16178DF
:10AC3000090149194A68521C00D14A6070BD0000E0
:10AC400064250020F3B583B00D46082069460881CD
:10AC500068780C2103274843214E3B468019008920
:10AC600002AA6946AADF002837D168783446000175
:10AC7000103C001969460A890830FDF7A5FA00283A
:10AC8000687806D000010119496800290FD0154ED7
:10AC90000EE00C2141438919897A89071DD40001EE
:10ACA00000190021016041608160C16015E00E4E15
:10ACB0002750684602896878694600010019426099
:10ACC0006878000100190830FDF75AFA68783823CF
:10ACD0000001011910220398B047002005B0F0BD13
:10ACE000742500209DBB0100C1BA010010B5FFF71B
:10ACF00037FF10BD10B5FFF78DFF10BD10B5FFF782
:10AD0000A1FF10BDF8B50746104E0125BD403068C3
:10AD1000FEF734F800280DD10D4C2069284207D1E8
:10AD2000384600F0FDFB0028E06804D0284303E02B
:10AD3000A8432061F8BDA843E060206900222843B1
:10AD40002061A1683068FDF7DBFFF8BDD8C50100C0
:10AD50007C20002070B51B4C207900072ED41A48A7
:10AD60001422017851430D182E6900F0CBFD0146E5
:10AD7000E8882A89761E80188019FDF7D7F921699D
:10AD80000025002909D06169814206D1E56060682B
:10AD900001210843606000200AE000F089F80028E3
:10ADA00002D00220E56003E02069002803D00320E0
:10ADB00001F088F970BDFEF79BFF70BD01F076F9D8
:10ADC00070BD00005820002004260020F8B51E4C5D
:10ADD0002078002837D02069002807D00026E068B6
:10ADE000002805D00025002E04D013E00126F6E748
:10ADF0000125F8E7684651DF052806D0002806D06F
:10AE000000221146FDF7E4FE04E0012602E021697C
:10AE100000988847002D12D1608869460880A06894
:10AE200061DF052806D0002806D000221146FDF774
:10AE3000CFFE04E0012502E0E168A0688847002E0B
:10AE4000D8D0002DCFD0F8BDB020002041880548D3
:10AE50000288914204D34088814201D80120704782
:10AE6000002070472C2000201048018CC9B2012915
:10AE700017D1818C090714D1018D09060A0F03D15E
:10AE8000828D1206120F0ED0090F012903D1828D77
:10AE90001206120F07D0032903D1808D0006000F80
:10AEA00001D000207047012070470000C00F00F063
:10AEB00070B50E481422017851430C18256900F032
:10AEC00021FD0146E08822896D1E80184019FDF79A
:10AED0002DF907494A69824206D3824202D10869A4
:10AEE000002801D0002070BD012070BD0426002084
:10AEF00058200020800701D00020704701207047B3
:10AF000030B51588EC1C9C4201D90C2030BD0224C0
:10AF10004C5513881C255B1C9BB21380CD541388A1
:10AF20005B1C9BB21380012807D0022807D003289E
:10AF300007D0042807D0072030BD002004E00120FE
:10AF400002E0CC5401E00320C8541088401C10805B
:10AF5000002030BD10B50448017AC90702D000783E
:10AF6000FEF7EAFC10BD000008200020F8B52C49CF
:10AF7000C8680A690C780F798968864694460091FA
:10AF80003EE00099E20055182A7836E01823534332
:10AF90006968521CC918AB78D2B2934200D1002222
:10AFA0000B78022B02D0032B27D123E04E680346F7
:10AFB000014603E0B14204D00B46C96900291CD008
:10AFC000F8E7002919D08B4208D1C069002805D1C3
:10AFD000144F0126BE600026B44601270E68C969D9
:10AFE000D961002909D00B689B190B6005E0017439
:10AFF000C06900E000210028F9D169789142C5D1EB
:10B000002146641EE4B20029BBD1054962460A61AB
:10B01000C8600F71704501D00120F8BD0020F8BD57
:10B020009020002000100140F8B504463148002669
:10B03000C168009107784EE02E48F90080680D182D
:10B0400043E0002C02D02046E4691FE02878182154
:10B0500041436A68401CC0B251182870AA789042D7
:10B0600000D12E700A784868012A30D1027C002A6B
:10B070002DD18A684260CA6882600A69C2604969E3
:10B0800081611C490979002900D04660194943684B
:10B090000A699C46991A0902174B090A994202D279
:10B0A0008268891807E06146511A09028268090A14
:10B0B0008A4202D9511A016000E00660466001210F
:10B0C00086600174C66101F073F8002CB9D128784C
:10B0D00069788842BAD138467F1EFFB20028ABD1CA
:10B0E0000448C1680098814201D00120F8BD0020C9
:10B0F000F8BD000090200020FFFF7F00002388B0F3
:10B10000354A07211846FDF7B3FD002803D0002279
:10B110001146FDF75DFD314A01213148FDF792FDF1
:10B12000002803D000221146FDF752FD2D4A2E497A
:10B130000320FEF7B1FB002803D000221146FDF7E3
:10B1400047FD01A90020FEF75DFA002803D0002288
:10B150001146FDF73DFD68460079022839D00020F0
:10B1600069460870FEF7DAF9FDF73AFA6946087899
:10B17000FFF770F8FFF7B4FC0520FDF789FB00F03E
:10B18000EBFD1C216846FDF714F80521C903019168
:10B190000F210904002002910090032269460A73DE
:10B1A000C88101220A740590104806906846FDF790
:10B1B000E9FF002803D000221146FDF709FDFDF745
:10B1C00095FB48DF0028FCD000221146FDF700FD6A
:10B1D000F7E70120C4E70000E8200020F58F010018
:10B1E00028C50100B1970100CD0C0000259F01008A
:10B1F00010B504480822416891434160007800F08E
:10B2000025FE10BD5820002070B5144682880E46D9
:10B2100005462088111D4118921C994201D8FE2A2A
:10B2200001D90C2070BD521C32542088FF21401CD3
:10B2300080B2208031542088401C80B22080811947
:10B24000288801F083F82188401880B22080AA88DD
:10B25000002A09D0A968002908D08019FCF790FFBE
:10B260002088A98840182080002070BD072070BD6C
:10B27000F8B50F46017814460546012902D16878D1
:10B28000002806D02088821C9A422DD8012902D09D
:10B2900006E00720F8BD69784118891C994223D837
:10B2A000181A801E86B2684606802188B81C0818C5
:10B2B00069467DDF0028EDD12878022805D169464E
:10B2C0000988B14201D809210AE00821012805D1E5
:10B2D0006878B04202D86A46108001E0684606806D
:10B2E00068460088FE2801D90C20F8BD2288401C41
:10B2F000B8542088401C80B2208039542088694688
:10B30000401C20800988401820800020F8BD0020C3
:10B3100070470020704700207047000010B501788A
:10B320008A074178920F4907C90E40681143820786
:10B33000540E0C438103890F03D0032109040840F4
:10B340000443002000F00AF803494868FF22120273
:10B3500010402043486010BD0075004010B50649FC
:10B3600002024B68FF242402A3431A434A600028C8
:10B3700000D00120086010BD007500408207D30E88
:10B38000FF229A408907090E10B5994000280BDA70
:10B3900003071B0F083B9C080C4BA400E318DC6957
:10B3A00094430C43DC6107E08408094BA400E418D3
:10B3B000236893430B432360C106C90E01208840D4
:10B3C000044908600449086010BD000000ED00E079
:10B3D00000E400E080E200E000E100E0F3B581B0CD
:10B3E0000F46019800F0D4F9012400281E4E019860
:10B3F00017D0FEF7F3FB80192030007F8009032867
:10B4000002D0012806D007E01848006901998C4055
:10B41000204201D1022100E00321019800F0CEF882
:10B42000FEBD00F0C1F90028FAD00198FEF7D6FB66
:10B4300005468100C81D0E4AF93089180A6980B294
:10B4400022430A610B49401800210160002FE7D018
:10B450000198FEF7C3FB800030580028E0D0064872
:10B46000AC404460FEBD0000A42500200005005053
:10B47000006500400060004000630040FEB50446E7
:10B4800023480E460019202141560027C8171346AD
:10B49000401C01D0082738E0F27819462046FEF714
:10B4A00079FB0546401C2FD0B078002807D01948FA
:10B4B000A1000918086802229043086007E00021F3
:10B4C0007378204600910A46019100F065F8F07803
:10B4D000002810D01048AA001018317802690F4BCC
:10B4E0001A400261E206D20C8907890B0A430169FE
:10B4F0000A43026109E00648327840192030017F92
:10B5000092011143017700E004273846FEBD000098
:10B51000A42500200007005000650040FFE0FCFF6C
:10B5200003490969C140C807C00F00D00120704716
:10B530000005005070B5124D2879002801D0082070
:10B5400070BD0F4900204039421E0B182033401CAB
:10B55000C0B21A702028F8D300242046FEF70CFB56
:10B56000641CE4B2082CF8D303210620FFF706FF81
:10B5700001200449C007486001202871002070BDE7
:10B58000E42500200063004002480079002800D034
:10B5900001207047E425002030B552000A4399008D
:10B5A000039C0A432102049D0A4329040A430249D9
:10B5B00080004018026030BD00070050820006483D
:10B5C0001018026803231B049A43026002680904EE
:10B5D0000A4302607047000000070050034940180A
:10B5E0000068012800D00020704700000060004083
:10B5F0004058002800D00120704703221202801812
:10B600004068084000D001207047000010B509785C
:10B610000A4800290BD0012908D10068FDF7AEFBCC
:10B62000002803D000221146FDF7D2FA10BD0F21E9
:10B63000002289040068FDF763FBF1E728C50100DB
:10B6400070B5054600881E4C19282DD010DC102836
:10B650001CD0112819D10020FEF710F9002803D0C2
:10B6600000221146FDF7B4FA0020C043E08021E03B
:10B67000392801D0552808D11321E08876DF002829
:10B6800003D000221146FDF7A3FA70BD0720FEF794
:10B69000F5F8002803D000221146FDF799FA0020A2
:10B6A000A070A888E08070BDA8790028FBD1A078A0
:10B6B000042802D0FDF71AF970BD00F0ADFB70BD93
:10B6C00000200020F8B5CA88002A1BD1114B8E89B2
:10B6D0009C781D880C3113E00A2353435B181F79B3
:10B6E000BC420CD15F88BD4209D10A246243511883
:10B6F0008979490706D559890181002103E0521C47
:10B700009642E9DC01216A46117002686946904759
:10B71000F8BD00003C20002009780648002906D02A
:10B72000012903D0022901D10021017070470121B4
:10B73000FBE700000020002010B50878002802D1A7
:10B740004878FDF7D7F910BD10B50878002802D168
:10B750004878FDF7CFF910BD70B505461C200B49A0
:10B7600068434418204611300621FCF722FD20468C
:10B770001021FCF71EFDFF2121740020A176C0439B
:10B780002083284600F0E8FD70BD000084240020DE
:10B790000449081820214156042901DB0120704783
:10B7A00000207047A4250020044908182021415694
:10B7B000042901D20120704700207047A4250020F1
:10B7C00007490979490701D408207047002804D0A7
:10B7D000044949780160002070470E20704700003E
:10B7E000582000200426002030B5124B1B795B073F
:10B7F00001D4082030BD002805D0002A03D00468F9
:10B80000002C10D101E00E2030BD0B4B1D68002D27
:10B8100009D045681889414369185D8945435868CE
:10B820002818884201D8072030BD146000205160DC
:10B8300030BD000058200020D0260020FEB505466F
:10B8400025480E460079400701D40820FEBD002D92
:10B8500003D02868002834D101E00E20FEBD1F4C23
:10B86000216800292DD060892189484361684118E9
:10B870006868814225D9FFF73DFB00280FD0686832
:10B88000019029680C2251430F1979680091401AE0
:10B8900039890C46FCF74AFC002912D101E010203E
:10B8A000FEBD21463046FCF741FC002909D1002E9F
:10B8B00007D0788944430198811900980019814282
:10B8C00001D90720FEBD00200246009033462946DC
:10B8D0000320FEF74BFAFEBD58200020D0260020A2
:10B8E00010B507484469601C06D000F00BF801460B
:10B8F0002046FCF71BFC10BD01200007406910BD6D
:10B900000010001001200007006980B2704700009D
:10B9100070B500240F482546047044702846FEF791
:10B9200015FA6D1C0A2DF9D30B4D6C80FFF7D8FF6B
:10B93000861EFFF7E7FF46430648AE60CC306C61D9
:10B940000460048144812C70AC610420EC61686067
:10B95000002070BD0426002058200020FFB5274895
:10B9600081B000791F4616460D46400702D40820D4
:10B9700005B0F0BD002D06D00198002803D028683E
:10B98000002815D101E00E20F2E71D4C20680028A8
:10B990000ED0618920896268414389186A689142A2
:10B9A00006D9002E04D0B04202D3F119814201D948
:10B9B0000720DDE70198FFF79DFA00281BD03846E5
:10B9C000FFF798FA002816D06868FFF793FA002866
:10B9D00011D068683246C1190198FCF7D1FB009676
:10B9E00028680C2148432458002202212846019B44
:10B9F000A0470020BCE71020BAE700005820002034
:10BA0000D0260020F8B52C4D044628790E46400774
:10BA100001D40820F8BD002C20D0002E1ED02068B4
:10BA200000281BD0FFF76EFF0146A088814213D388
:10BA3000102811D3E08800280ED0FFF751FF471ED1
:10BA4000FFF760FF4743E288A188A8684A431218BD
:10BA5000974201D3890703D00720F8BD0E20F8BD17
:10BA60006988012926D031600C22144B5143706043
:10BA7000CA18506020685850A0881081E088508112
:10BA8000FFF740FF0646FFF73DFFA188E288401E12
:10BA9000514340183146FCF75FFB0446FFF732FF85
:10BAA0000146A86861430818A8606888401C68803F
:10BAB0000020F8BD0420F8BD58200020D02600202A
:10BAC000F8B5044620481E46007915460F46400743
:10BAD00001D40820F8BD002F05D0002C03D0206829
:10BAE000002815D101E00E20F8BD18480168002992
:10BAF0000ED04289018940684A431018626890421A
:10BB000006D9002D04D0A94202D3A819884201D930
:10BB10000720F8BD3846FFF7EDF9002811D0304670
:10BB2000FFF7E8F900280CD06068FFF7E3F9002878
:10BB300007D02B463A46214601200096FEF716F91B
:10BB4000F8BD1020F8BD000058200020D0260020AD
:10BB500010B5114902460878002811D004280FD0EA
:10BB6000022A16D0032A0BD10A79120711D48A6946
:10BB7000521C8A61032A08D0022802D000F066F91C
:10BB800010BD487800F09EFA10BD0D20FDF74AF870
:10BB900010BDFEF75BFF10BD58200020F8B504462D
:10BBA00020481E46007915460F46400701D408205C
:10BBB000F8BD002F05D0002C03D02068002815D137
:10BBC00001E00E20F8BD1848016800290ED0428916
:10BBD000018940684A4310186268904206D9002DD6
:10BBE00004D0A94202D3A819884201D90720F8BD80
:10BBF0003846FFF77FF9002811D03046FFF77AF971
:10BC000000280CD06068FFF775F9002807D02B4694
:10BC10003A46214604200096FEF7A8F8F8BD102009
:10BC2000F8BD000058200020D026002070B5012467
:10BC30000B49600408600B4940108860094940398D
:10BC40008860094D6C602F20FCF744FAAC60074D0A
:10BC500000242F202C61FCF73DFAEC7070BD000031
:10BC600080E100E0401301400010014090200020DE
:10BC7000FF210748093100224250064881690648E1
:10BC8000037DC268D154017D491C017570470000D5
:10BC90000020004000250040EC2500201FB50122B7
:10BCA00069460A7008720448C16801910021C17494
:10BCB00006C8684690471FBDEC250020FFB5074623
:10BCC000806A81B0144600283DD0002538462030D7
:10BCD000009033E00C20B96A68430E18B088801CCD
:10BCE000FE2802D90C2005B0F0BD22880299401C24
:10BCF000885420881622401C80B2208002990A5461
:10BD00002088401C80B2208002994118308800F0C1
:10BD10001DFB2188401880B22080B288002A0AD0FA
:10BD2000B16800290FD0029BC018FCF729FA2088BF
:10BD3000B188401820806D1C0098EDB2007BA842AD
:10BD4000C8D80020CFE70720CDE710B50022114664
:10BD5000FCF73EFF10BD00003EB500240721C9439B
:10BD6000684600940170601C0107090F6846203185
:10BD70004170847069462248FDF704FC002803D016
:10BD800000221146FCF724FF1E4800901C4869461B
:10BD90000C30FDF733FB002803D000221146FCF7DE
:10BDA00017FF1948194D00900195029468460472D6
:10BDB0000120014668462031417201200146684653
:10BDC000203181720E4869461C30FDF759FB00286E
:10BDD00003D000221146FCF7FBFEFCF7F9FF0C48EC
:10BDE000C4700C4800900648694601954830FDF73C
:10BDF00093FA002803D000221146FCF7E9FE3EBD6D
:10BE00008823002039B7010049B701004BBD01006C
:10BE10000020002019B7010010B50020FDF72EFD0D
:10BE2000002803D000221146FCF7D2FEFDF750FC9B
:10BE3000002803D000221146FCF7CAFE3CDF002890
:10BE400003D000221146FCF7C3FE10BD10B50F4908
:10BE50000028087009D0012811D0022812D0032828
:10BE600002D14869FEF732FE10BD00208861C8612A
:10BE7000074840780028F7D0FDF74CFF10BD00F0D0
:10BE8000D9F810BD00F038F810BD0000582000208F
:10BE90000426002010B508461146C046C04610BD15
:10BEA000002803D00249C860002070470E20704768
:10BEB000B020002070B5002901D08C0701D00720E8
:10BEC00070BD064C0125A16062800549636010DFEA
:10BED0000028F5D1257016202EDF70BDB02000207F
:10BEE00095BE0100002803D0024908610020704778
:10BEF0000E207047B0200020F8B5164C1422606860
:10BF00004008400060601448017851430E183769BA
:10BF1000FFF7F8FC01463846FCF708F90546606172
:10BF2000FFF7F0FC0146F0887F1EC019FCF7FEF811
:10BF300002228542606801D1104300E090436060B6
:10BF4000E1681040084303D0002000F0BBF8F8BDC2
:10BF50000220FAE7582000200426002010B50248ED
:10BF60004069FEF7B3FD10BD5820002010B5FFF763
:10BF7000B7FC441EFFF7C6FC4443FFF7C3FC04496B
:10BF80004A69521E5043CA682146FEF7A4FD10BDFF
:10BF900058200020F8B510481422017851430C189D
:10BFA0002569FFF7AFFC0146E08822898018401917
:10BFB000FCF7BCF80F46FFF793FC461EFFF7A2FC08
:10BFC0004643E0882289F1198018044A4019126911
:10BFD000FEF781FDF8BD0000042600205820002057
:10BFE00070B5FFF78FFC0546FFF77AFC441EFFF79C
:10BFF00089FC60432946FCF799F8FEF767FD70BDA0
:10C0000070B5FFF77FFC8608FFF77CFC074949699C
:10C0100048430446FFF764FC451EFFF773FC684382
:10C0200032462146FEF757FD70BD00005820002023
:10C030000020704770B514481422017851430C1841
:10C04000241DFFF75FFC6188104E884211D2FFF774
:10C0500059FC61880D1AFFF755FC8208A188E06839
:10C060004018216940194919FEF735FDFFF74AFCD0
:10C0700007E0A288E06880188A082169FEF72BFD96
:10C080006088F06170BD0000042600205820002068
:10C0900010B505480079000703D4012000F012F81C
:10C0A00010BD00F003F810BD5820002010B5044862
:10C0B0000822416891434160407800F003F810BDC8
:10C0C0005820002002494870024980000858004763
:10C0D00058200020B0C5010010B50446FFF738FD18
:10C0E000022C01D0032C07D104484178002903D049
:10C0F00000214170FCF7FAFB10BD00000020002079
:10C1000010B505480079000702D4FDF7F1FD10BD18
:10C11000FFF7CCFF10BD000058200020FEB51F4CDB
:10C1200000252769E06802906846FEF75FFC0190F1
:10C13000FEF71CFF06460198002822D00023009835
:10C14000E16817E00E680A46864202D9301A086094
:10C1500012E0801BF31800261660D668D169B44639
:10C16000002E07D0FE183602360A566066469660E4
:10C17000D56115460029E5D12846E160FEF754FF58
:10C1800006E02846FEF750FF002801D1002E02D01D
:10C190000298FDF72FFE00202071FEBD90200020A8
:10C1A00001200249000508607047000000E200E03D
:10C1B00010B50E4BD968002906D002680C68A2425F
:10C1C00004D8A21A0A60C161D86010BD0B4604E011
:10C1D0000B46C969121B002904D00C689442F7D39E
:10C1E000A41A0C600260C161D86110BD90200020CB
:10C1F000F8B51E4DEC68002C36D01D48002740686D
:10C200002969401A0602360A2068B0421AD8361A3E
:10C21000C7192246107CE469002811D00020107450
:10C220006B69002B09D0916950699847002807D0A5
:10C2300000221146FCF7CCFC02E051699069884766
:10C24000002CE1D16978A878814206D1401CC0B2A7
:10C25000A870022801D10020A87004490006800DB2
:10C2600018310F50FFF79CFFF8BD00009020002010
:10C2700000150140FF2107481D31002242500648A9
:10C28000028A8168895C028A521C02820348C16169
:10C290007047000000200040EC25002000250040F1
:10C2A0001FB500216A46117010720448826801921D
:10C2B000817406C8684690471FBD0000EC25002029
:10C2C000F0B58FB00D4606461C216846FBF771FF9E
:10C2D00068460178022001436846017000240194F9
:10C2E000039404940594012708A8069487701649BE
:10C2F00068460184079469780177A9784177807F3F
:10C30000F9210840F721801C0840EF21084041082E
:10C31000490068468177142109A8FBF74AFF1421D8
:10C3200009A8FBF746FF08A8099007A80A906846E5
:10C330008785C48507860D953088B31C09AA694690
:10C34000A2DF0FB0F0BD0000072A00000870000A4D
:10C350004870022070470000012181400248426875
:10C360008A434260704700004020002038B51549DC
:10C37000154A488890420FD04A78144C521CD2B2C9
:10C380004A70237B934208D3091D75DF002803D030
:10C39000A169002900D0884738BD00254D70217C57
:10C3A000002907D03B2176DF002803D0A1690029AE
:10C3B00000D0884761690029EED06846057088473B
:10C3C00038BD000028200020FFFF00006824002066
:10C3D00012494868C005C00D19D0103840B2002875
:10C3E00007DA0207120F083A920892005118C96939
:10C3F00004E081080A4A8900891809688007C00E8C
:10C40000C1400806800F012803D0032803D0022072
:10C4100070470020704701207047000000ED00E0E9
:10C4200000E400E042788378521CD2B2934200D1FB
:10C4300000220378934201D1002070470A704168BE
:10C4400040781822504308187047FFB583B016464D
:10C450000C9D0D9C1F46022200950194039800F04C
:10C460000CF8002807D13B46102231460095019474
:10C47000039800F002F807B0F0BDFFB583B007469F
:10C4800000200C9C8646268805463AE07868A9007C
:10C4900042181188684681805188C180002269460F
:10C4A00001A865DF002839D16846017805988142E6
:10C4B00026D17046002801D0002200E00222208808
:10C4C000891842180D998A4227D8714600290AD145
:10C4D000401C80B22080069A049911542088401C88
:10C4E000208001208646218806980A18694601A8FE
:10C4F00065DF002812D1694620880978401820801D
:10C500006D1C3888A842C1DC704600280AD02088FB
:10C51000801B401E80B2FF2802D90C2007B0F0BD5E
:10C52000069988550020F9E7C82000200202000083
:10C5300000000000041801000218010003180100A7
:10C54000DC230020FC230020282400201100000010
:10C55000120000001300000014000000110003008E
:10C56000E596010012000300E596010013000300A8
:10C57000E596010014000300E59601004824002020
:10C5800017B3010045AC01005DAB0100FDAC01003B
:10C5900013B3010015AC010059AB0100F5AC01006B
:10C5A0000FB3010061AB010055AB0100EDAC010020
:10C5B000E1BF010001C001005DBF010095BF0100A6
:10C5C0006DBF010091C0010041A00100ED9F01007D
:10C5D00001C1010055AD0100DC2600200300000070
:10C5E00000C6010000200020C8000000C285010034
:10C5F000C8C60100C8200020380E0000D285010006
:10C60000000000000000FFFF00000000000000002C
:10C61000000000000000000000000000000000001A
:10C62000000000000000000000000000000000000A
:10C6300000000000000000000000000000000000FA
:10C6400000000000000000000000000000000000EA
:10C6500000000000000000000000000000000000DA
:10C6600000000000000000000000000000000000CA
:10C6700000000000000000000000000000000000BA
:10C6800000000000000000000000000000000000AA
:10C69000000000000000000000000000000000009A
:10C6A000000000000000000000000000000000008A
:10C6B000000000000000000000000000000000007A
:08C6C000000000000024F4005A
:04000005000180C1B5
:00000001FF
